:100000000C9434000C9451000C9451000C94510049
:100010000C9451000C9451000C9451000C9451001C
:100020000C9451000C9451000C9451000C94E60077
:100030000C9451000C9451000C9451000C945100FC
:100040000C9451000C9451000C9451000C945100EC
:100050000C9451000C9451000C9451000C945100DC
:100060000C9451000C94510011241FBECFEFD8E026
:10007000DEBFCDBF11E0A0E0B1E0E4E1F6E002C0F8
:1000800005900D92A235B107D9F721E0A2E5B1E0C4
:1000900001C01D92A435B207E1F70E9441020C9401
:1000A00008030C9400001092C50087E68093C400FA
:1000B00088E08093C10086E08093C200089590910B
:1000C000C00095FFFCCF8093C6000895CF93DF93C7
:1000D000EC018991811103C0DF91CF9108950E94B5
:1000E0005F00F7CFEF92FF920F931F93CF93DF93B1
:1000F000CDB7DEB72C970FB6F894DEBF0FBECDBFDD
:10010000009709F580E38F8321E030E087E090E0FD
:100110008C0F9D1F280F391FF9011082CE01079601
:100120000E94660086E191E00E9466002C960FB660
:10013000F894DEBF0FBECDBFDF91CF911F910F911D
:10014000FF90EF900895FE01319630E020E08F019E
:100150004AE0E42EF12C2F5F3F4FB7010E94F402DA
:10016000805D8193CB010097B1F7FE013796C901FD
:100170000197D801A80FB91F4C9141930097C1F77F
:10018000C5CFCF93DF93EC0197FF06C08DE20E94AD
:100190005F00D195C195D109CE01DF91CF910C942B
:1001A000720080E480937C0087E880937A00089551
:1001B00080917A00806480937A0080917A0086FF33
:1001C000FCCF809178009091790008951F920F9252
:1001D0000FB60F9211248F9381E0809353018F917A
:1001E0000F900FBE0F901F9018958CE080938100A8
:1001F00089E698E1909389008093880082E080935B
:100200006F00089588E48093B800089584EA80938D
:10021000BC008091BC0087FFFCCF9091B900987F13
:10022000983019F081E0903109F480E008958093CE
:10023000BB0084E88093BC008091BC0087FFFCCFAA
:100240009091B900987F983119F081E0983209F4C3
:1002500080E0089584EC8093BC008091BC0087FF0F
:10026000FCCF8091BB00089584E88093BC0080910E
:10027000BC0087FFFCCF8091BB00089584E9809388
:10028000BC0008950E94060182ED0E9417018BE6D2
:100290000E94170180E00E9417010C943E018F928A
:1002A0009F92AF92BF92CF92DF92EF92FF920F9305
:1002B0001F93CF93DF936C017B018A010E9406019B
:1002C00082ED0E9417018BE30E9417010E94060134
:1002D00083ED0E9417010E942A01B82E0E942A0174
:1002E000882E0E942A01D82F0E942A01982E0E944F
:1002F0002A01C82F0E943401A82E0E943E019B2D86
:10030000882DF601918380839D2F892DF70191839C
:100310008083DC2FCA2DF801D183C083DF91CF9178
:100320001F910F91FF90EF90DF90CF90BF90AF9013
:100330009F908F900895CF930E94060180ED0E94B8
:10034000170180E00E9417010E94060181ED0E94C2
:1003500017010E943401C82F0E943E010E9406012D
:1003600080ED0E94170180E00E9417018C2F8F778B
:100370000E941701CF910C943E01AF92BF92CF9291
:10038000DF92EF92FF921F93CF93DF937C016B017B
:100390005A010E94060180ED0E94170180E00E9430
:1003A00017010E94060181ED0E9417010E942A0197
:1003B000182F0E942A01D82F0E943401C82F0E94B2
:1003C0003E01912F929597708AE01F70989F100DB3
:1003D0001124F50110839D2F92959F70DF70989FD7
:1003E000D00D1124F601D0839C2F92959F70CF7071
:1003F000989FC00D1124F701C083DF91CF911F9109
:10040000FF90EF90DF90CF90BF90AF9008950F9343
:100410001F93CF93DF93D82F162F042F0E9406012E
:1004200080ED0E94170180E00E941701CAE0802F32
:100430006C2F0E94E802292F30E1839FC001112414
:10044000822B0E941701812F6C2F0E94E802292F16
:1004500030E1839FC0011124822B0E9417018D2F50
:100460006C2F0E94E802292F30E1839FC0011124E4
:10047000822B0E941701DF91CF911F910F910C9455
:100480003E01CF93DF93CDB7DEB729970FB6F8942F
:10049000DEBF0FBECDBF259A0E9453000E94D1003F
:1004A0000E94F5000E9402010E9442010E949B01ED
:1004B000789440E06EE08DE00E94070280E091E0D9
:1004C0000E94660010E000E080E2F82E8091530167
:1004D0008823E1F310925301809152018F5F809342
:1004E000520185B18F2585B980915201843170F315
:1004F0001092520189E191E00E946600C8010E94B9
:1005000072000F5F1F4F86E191E00E94660081E25A
:1005100091E00E9466000E94D8000E94720086E16D
:1005200091E00E946600AE014F5F5F4FBE016D5FBC
:100530007F4FCE0105960E944F0189E291E00E9413
:1005400066008D819E810E94C1008DE291E00E9433
:1005500066008B819C810E94C10081E391E00E9432
:10056000660089819A810E94C10086E191E00E9423
:100570006600AE01495F5F4FBE01685F7F4FCE01ED
:1005800009960E94BD0185E391E00E94660089857D
:1005900090E00E9472008DE391E00E9466008885E1
:1005A00090E00E94720087E491E00E9466008F81D3
:1005B00090E00E94720086E191E00E94660086E170
:1005C00091E00E94660086E191E00E9466007ECF85
:1005D000991B79E004C0991F961708F0961B881F95
:1005E0007A95C9F780950895AA1BBB1B51E107C0F6
:1005F000AA1FBB1FA617B70710F0A61BB70B881FB3
:10060000991F5A95A9F780959095BC01CD01089541
:04061000F894FFCF8C
:100614004465736B204772656D6C696E2069732045
:10062400616C6976652E0D0A00426C696E6B20233D
:10063400004C696768743A200058203A0059203AFF
:10064400005A203A00486F7572733A20004D696E63
:10065400757465733A20005365636F6E64733A2052
:02066400000094
:00000001FF
