:100000000C9434000C9451000C9451000C94510049
:100010000C9451000C9451000C9451000C9451001C
:100020000C9451000C9451000C9451000C941E013E
:100030000C9451000C9451000C9451000C945100FC
:100040000C9451000C9451000C9451000C945100EC
:100050000C9451000C9451000C9451000C945100DC
:100060000C9451000C94510011241FBECFEFD8E026
:10007000DEBFCDBF11E0A0E0B1E0E8E5F7E002C0EF
:1000800005900D92A036B107D9F721E0A0E6B1E0C6
:1000900001C01D92A236B207E1F70E9440030C9402
:1000A000AA030C9400001092C50087E68093C40058
:1000B00088E08093C10086E08093C200089590910B
:1000C000C00095FFFCCF8093C6000895CF93DF93C7
:1000D000EC018991811103C0DF91CF9108950E94B5
:1000E0005F00F7CFCF92DF92EF92FF920F931F93B3
:1000F000CF93DF93CDB7DEB72C970FB6F894DEBF62
:100100000FBECDBF9C01892BF9F480E38F83E1E022
:10011000F0E0CE010796E80FF91F1082CE01079696
:100120000E9466008DE291E02C960FB6F894DEBF37
:100130000FBECDBFDF91CF911F910F91FF90EF9038
:10014000DF90CF900C9466008E010F5F1F4F7801F7
:10015000E0E0F0E08AE0C82ED12CC901B6010E948F
:1001600096033196805DD7018D937D01C9019B0176
:100170000A9798F7A8014E0F5F1FCE010796401708
:10018000510739F2DA012E91AD01DC012D93CD0139
:10019000F6CFCF93DF93EC0197FF06C08DE20E946C
:1001A0005F00D195C195D109CE01DF91CF910C941B
:1001B00072001F93CF93DF93CDB7DEB761970FB671
:1001C000F894DEBF0FBECDBF182F81E1E0E4F1E06F
:1001D000DE01119601900D928A95E1F7812F8295AB
:1001E0008F70FE013196E80FF11D80810E945F0043
:1001F0001F70FE013196E10FF11D808161960FB6EF
:10020000F894DEBF0FBECDBFDF91CF911F910C944C
:100210005F0080E480937C0087E880937A000895F3
:1002200080917A00806480937A0080917A0086FDC4
:10023000FCCF809178009091790008958F9381E0B0
:10024000809361018F9118958CE08093810089E6FD
:1002500098E1909389008093880082E080936F00FA
:10026000089588E48093B800089584EA8093BC00E0
:1002700080E197E22091BC0027FF0AC09091B9006D
:10028000987F983019F081E0903109F480E008956A
:10029000019781F781E008958093BB0084E8809303
:1002A000BC0080E197E22091BC0027FF0CC0909138
:1002B000B900987F983129F0983219F081E0903494
:1002C00009F480E00895019771F781E0089584ECC6
:1002D0008093BC0080E197E22091BC0027FF03C01F
:1002E0008091BB0008950197B9F784E98093BC0021
:1002F00080E0089584E88093BC0080E197E220913B
:10030000BC0027FF03C08091BB0008950197B9F797
:1003100084E98093BC0080E0089584E98093BC0068
:1003200008950E94350180ED0E944C018BE60E94E9
:100330004C0180E00E944C010C948D018F929F92A1
:10034000AF92BF92CF92DF92EF92FF920F931F93E3
:10035000CF93DF936C017B018A010E94350180ED10
:100360000E944C018BE30E944C010E94350181EDFB
:100370000E944C010E946701882E0E946701B82EDE
:100380000E946701982E0E946701D82F0E94670182
:10039000A82E0E947A01C82F0E948D0181E591E06C
:1003A0000E946600882D0E94D9008B2D0E94D900E2
:1003B00088E591E00E946600892D0E94D9008D2F6A
:1003C0000E94D9008CE591E00E9466008A2D0E946F
:1003D000D9008C2F0E94D9008DE291E00E94660026
:1003E000382D2B2DF60131832083392D2D2FF70148
:1003F00031832083DA2DF801D183C083DF91CF913F
:100400001F910F91FF90EF90DF90CF90BF90AF9032
:100410009F908F900895CF930E94350180ED0E94A8
:100420004C0180E00E944C010E94350181ED0E9448
:100430004C010E947A01C82F0E948D010E94350153
:1004400080ED0E944C0180E00E944C018C2F8F7740
:100450000E944C01CF910C948D01BF92CF92DF92FC
:10046000EF92FF920F931F93CF93DF938C017B0149
:100470006A010E94350180ED0E944C0180E00E94DB
:100480004C010E94350181ED0E944C010E946701E0
:10049000B82E0E946701D82F0E947A01C82F0E94AF
:1004A0008D019B2D929597702AE08B2D8F70929FD6
:1004B000800D1124F60180838D2F82958F70DF705F
:1004C000829FD00D1124F701D0838C2F82958F70DD
:1004D000CF70829FC00D1124F801C083DF91CF91AE
:1004E0001F910F91FF90EF90DF90CF90BF900895F4
:1004F0001F93CF93DF93382F562F842F2AE0622F3C
:100500000E948A038295807F182F192B852F0E94C5
:100510008A03D82FD295D07FD92B832F0E948A03AC
:10052000C82FC295C07FC92B0E94350180ED0E9463
:100530004C0180E00E944C01812F0E944C018D2FC4
:100540000E944C018C2F0E944C01DF91CF911F9192
:100550000C948D0180FF17C05D9A81FF16C05C9AD4
:1005600082FF15C05B9A83FF14C05A9A5E9A85E099
:100570008A95F1F700005E9887EC90E00197F1F71B
:1005800000C0000008955D98E8CF5C98E9CF5B98C3
:10059000EACF5A98EBCFCF93C82F611559F05F9AE5
:1005A0008C2F82958F700E94AA028C2F8F70CF9112
:1005B0000C94AA025F98F4CF579A569A559A549A77
:1005C000539A529A2FEF80E792E02150804090405A
:1005D000E1F700C0000083E00E94AA028FE19EE4E0
:1005E0000197F1F700C0000083E00E94AA0287EBA8
:1005F00091E00197F1F700C0000083E00E94AA0299
:1006000087EB91E00197F1F700C0000082E00E94C3
:10061000AA0260E088E20E94CB0260E08CE00E94C7
:10062000CB0260E081E00E94CB028FE39FE1019763
:10063000F1F700C0000060E086E00C94CB0260E0BF
:1006400081E00E94CB028FE39FE10197F1F700C0A8
:10065000000008956111805C60E080680C94CB021A
:1006600061E00C94CB02CF93DF93EC01899181116F
:1006700003C0DF91CF91089561E00E94CB02F6CFD5
:10068000259A0E9453000E9409010E9424010E94A1
:10069000DC0280E091E00E94330361E080E00E9490
:1006A0002A038DE091E00E943303789487E191E082
:1006B0000E946600C0E0D0E010E2809161018115E7
:1006C000E1F310926101809160018F5F809360017E
:1006D00085B1812785B980916001843170F31092D2
:1006E000600180E391E00E946600CE010E947200EA
:1006F00021968DE291E00E94660088E391E00E94DD
:1007000066000E9410010E9472008DE291E00E943A
:100710006600D3CF992778E0880F991F961708F0C5
:10072000961B881F7A95C9F780950895AA1BBB1B55
:1007300051E107C0AA1FBB1FA617B70710F0A61BE1
:10074000B70B881F991F5A95A9F780959095BC0102
:08075000CD010895F894FFCFDC
:100758004465736B204772656D6C696E0069732020
:10076800616C6976652E004465736B204772656D10
:100778006C696E20697320616C6976652E0D0A00BC
:10078800426C696E6B2023004C696768743A2000DC
:1007980030313233343536373839414243444546AF
:1007A8000052415720583A0020593A00205A3A003E
:00000001FF
